S01B00003032625F636F64696E675F6D61726174686F6E2E73726563B9
S11300000C942A000C9434000C9434000C943400A6
S11300100C9434000C9434000C9434000C9434008C
S11300200C9434000C9434000C9434000C9434007C
S11300300C9434000C9434000C9434000C9434006C
S11300400C9434000C9434000C9434000C9434005C
S11300500C94340011241FBECFE5D8E0DEBFCDBF21
S11300600E9460000C94B9000C94000020E022C0AF
S113007080B390E080959095022E02C09595879567
S11300800A94E2F780FF15C03FE788E391E031501E
S113009080409040E1F700C0000080B390E080957C
S11300A09095022E02C0959587950A94E2F780FDFB
S11300B005C02F5F2830E0F280E0089581E00895C4
S11300C08FEF87BB11BA0E94360081113BC09FE7B6
S11300D098BBC12CD12C76010FC00E943600813010
S11300E091F0EFECF7E03197F1F700C00000FFEF7B
S11300F0CF1ADF0AEF0AFF0A28E8C21623E1D20664
S1130100E104F10450F38130F1F28FEF88BBC12C8C
S1130110D12C76010FC00E9436008130A1F28FEC01
S113012097E00197F1F700C000009FEFC91AD90AC0
S1130130E90AF90AE8E8CE16E3E1DE06E104F1048F
S113014050F3C1CF8FE788BBFFE728E381E0F1508C
S113015020408040E1F700C000008FEF88BB9FE79C
S1130160E8E3F1E09150E040F040E1F700C0000026
S1090170AACFF894FFCFB2
S9030000FC
