S00E0000696F5F6C65642E73726563AA
S11300000C942A000C9434000C9434000C943400A6
S11300100C9434000C9434000C9434000C9434008C
S11300200C9434000C9434000C9434000C9434007C
S11300300C9434000C9434000C9434000C9434006C
S11300400C9434000C9434000C9434000C9434005C
S11300500C94340011241FBECFE5D8E0DEBFCDBF21
S11300600E9436000C9451000C9400008FEF87BB63
S113007020E014C081E090E0022E02C0880F991F96
S11300800A94E2F7809588BB3FEF89E698E1315006
S113009080409040E1F700C000002F5F283050F30B
S10900A0E7CFF894FFCF46
S9030000FC
