S0170000636F64696E672D6D61726174686F6E2E7372656312
S11300000C942A000C9434000C9434000C943400A6
S11300100C9434000C9434000C9434000C9434008C
S11300200C9434000C9434000C9434000C9434007C
S11300300C9434000C9434000C9434000C9434006C
S11300400C9434000C9434000C9434000C9434005C
S11300500C94340011241FBECFE5D8E0DEBFCDBF21
S11300600E9436000C948F000C9400008FEF87BB25
S113007096E896B988BB20E030E0E0E0F0E080E468
S113008087B986B1806486B93699FECFC4B1D5B13B
S1130090C03981E0D80720F02039314008F4319686
S11300A09F01ADECBCEC0E948000AC0156954795D5
S11300B056954795569547959A01220F331FCA01C5
S11300C0880F991F880F991F880F991F820F931FFC
S11300D09F01281B390B552742955295507F542771
S11300E0407F5427422B409548BB3FEF81EE94E07C
S11300F0315080409040E1F700C000009E01BFCF26
S1130100A29FB001B39FC001A39F700D811D112454
S1130110911DB29F700D811D1124911D0895F894B5
S1050120FFCF0B
S9030000FC
