S014000030325F696F5F627574746F6E2E737265637C
S11300000C942A000C9434000C9434000C943400A6
S11300100C9434000C9434000C9434000C9434008C
S11300200C9434000C9434000C9434000C9434007C
S11300300C9434000C9434000C9434000C9434006C
S11300400C9434000C9434000C9434000C9434005C
S11300500C94340011241FBECFE5D8E0DEBFCDBF21
S11300600E9436000C9488000C9400008FEF87BB2C
S113007011BA20E030E020C080B390E0022E02C02C
S1130080959587950A94E2F780FD15C04FE788E3BC
S113009091E0415080409040E1F700C0000080B3FF
S11300A090E080959095022E02C0959587950A94CC
S11300B0E2F780FD3F5F2F5F2830F0F2323089F4A1
S11300C08FE788BB8FE493EC0197F1F700C0000041
S11300D08FEF88BB8FE493EC0197F1F700C0000029
S11300E0C8CF8EEF88BB9FE728E341E091502040C2
S11300F04040E1F700C000008FEF88BB8FE798E332
S113010021E0815090402040E1F700C00000B1CFD1
S1070110F894FFCF8D
S9030000FC
